{
	"contracts/FrontRuning_Vulnerable.sol": {
		"FindTheWord": {
			"abi": [
				{
					"inputs": [],
					"stateMutability": "payable",
					"type": "constructor"
				},
				{
					"inputs": [],
					"name": "secretHash",
					"outputs": [
						{
							"internalType": "bytes32",
							"name": "",
							"type": "bytes32"
						}
					],
					"stateMutability": "view",
					"type": "function"
				},
				{
					"inputs": [
						{
							"internalType": "string",
							"name": "solution",
							"type": "string"
						}
					],
					"name": "solve",
					"outputs": [],
					"stateMutability": "nonpayable",
					"type": "function"
				}
			],
			"devdoc": {
				"kind": "dev",
				"methods": {},
				"version": 1
			},
			"evm": {
				"assembly": "    /* \"contracts/FrontRuning_Vulnerable.sol\":70:499  contract FindTheWord {... */\n  mstore(0x40, 0x80)\n  dataSize(sub_0)\n  dup1\n  dataOffset(sub_0)\n  0x00\n  codecopy\n  0x00\n  return\nstop\n\nsub_0: assembly {\n        /* \"contracts/FrontRuning_Vulnerable.sol\":70:499  contract FindTheWord {... */\n      mstore(0x40, 0x80)\n      callvalue\n      dup1\n      iszero\n      tag_1\n      jumpi\n      0x00\n      dup1\n      revert\n    tag_1:\n      pop\n      jumpi(tag_2, lt(calldatasize, 0x04))\n      shr(0xe0, calldataload(0x00))\n      dup1\n      0x76fe1e92\n      eq\n      tag_3\n      jumpi\n      dup1\n      0xd29e6803\n      eq\n      tag_4\n      jumpi\n    tag_2:\n      0x00\n      dup1\n      revert\n        /* \"contracts/FrontRuning_Vulnerable.sol\":238:496  function solve (string memory solution) external {... */\n    tag_3:\n      tag_5\n      0x04\n      dup1\n      calldatasize\n      sub\n      dup2\n      add\n      swap1\n      tag_6\n      swap2\n      swap1\n      tag_7\n      jump\t// in\n    tag_6:\n      tag_8\n      jump\t// in\n    tag_5:\n      stop\n        /* \"contracts/FrontRuning_Vulnerable.sol\":98:201  bytes32 public constant secretHash = 0x7ce2480ae379810bd95934eb0abae6daf3a1d1c49a259a0e4d608de64a3700cd */\n    tag_4:\n      tag_9\n      tag_10\n      jump\t// in\n    tag_9:\n      mload(0x40)\n      tag_11\n      swap2\n      swap1\n      tag_12\n      jump\t// in\n    tag_11:\n      mload(0x40)\n      dup1\n      swap2\n      sub\n      swap1\n      return\n        /* \"contracts/FrontRuning_Vulnerable.sol\":238:496  function solve (string memory solution) external {... */\n    tag_8:\n        /* \"contracts/FrontRuning_Vulnerable.sol\":347:355  solution */\n      dup1\n        /* \"contracts/FrontRuning_Vulnerable.sol\":330:356  abi.encodePacked(solution) */\n      add(0x20, mload(0x40))\n      tag_14\n      swap2\n      swap1\n      tag_15\n      jump\t// in\n    tag_14:\n      mload(0x40)\n      0x20\n      dup2\n      dup4\n      sub\n      sub\n      dup2\n      mstore\n      swap1\n      0x40\n      mstore\n        /* \"contracts/FrontRuning_Vulnerable.sol\":320:357  keccak256(abi.encodePacked(solution)) */\n      dup1\n      mload\n      swap1\n      0x20\n      add\n      keccak256\n        /* \"contracts/FrontRuning_Vulnerable.sol\":135:201  0x7ce2480ae379810bd95934eb0abae6daf3a1d1c49a259a0e4d608de64a3700cd */\n      0x7ce2480ae379810bd95934eb0abae6daf3a1d1c49a259a0e4d608de64a3700cd\n        /* \"contracts/FrontRuning_Vulnerable.sol\":306:316  secretHash */\n      0x00\n      shl\n        /* \"contracts/FrontRuning_Vulnerable.sol\":306:357  secretHash == keccak256(abi.encodePacked(solution)) */\n      eq\n        /* \"contracts/FrontRuning_Vulnerable.sol\":297:378  require (secretHash == keccak256(abi.encodePacked(solution)), \"Incorrect answer\") */\n      tag_16\n      jumpi\n      mload(0x40)\n      0x08c379a000000000000000000000000000000000000000000000000000000000\n      dup2\n      mstore\n      0x04\n      add\n      tag_17\n      swap1\n      tag_18\n      jump\t// in\n    tag_17:\n      mload(0x40)\n      dup1\n      swap2\n      sub\n      swap1\n      revert\n    tag_16:\n        /* \"contracts/FrontRuning_Vulnerable.sol\":390:399  bool sent */\n      0x00\n        /* \"contracts/FrontRuning_Vulnerable.sol\":405:415  msg.sender */\n      caller\n        /* \"contracts/FrontRuning_Vulnerable.sol\":405:420  msg.sender.call */\n      0xffffffffffffffffffffffffffffffffffffffff\n      and\n        /* \"contracts/FrontRuning_Vulnerable.sol\":428:435  2 ether */\n      0x1bc16d674ec80000\n        /* \"contracts/FrontRuning_Vulnerable.sol\":405:440  msg.sender.call{value: 2 ether}(\"\") */\n      mload(0x40)\n      tag_19\n      swap1\n      tag_20\n      jump\t// in\n    tag_19:\n      0x00\n      mload(0x40)\n      dup1\n      dup4\n      sub\n      dup2\n      dup6\n      dup8\n      gas\n      call\n      swap3\n      pop\n      pop\n      pop\n      returndatasize\n      dup1\n      0x00\n      dup2\n      eq\n      tag_23\n      jumpi\n      mload(0x40)\n      swap2\n      pop\n      and(add(returndatasize, 0x3f), not(0x1f))\n      dup3\n      add\n      0x40\n      mstore\n      returndatasize\n      dup3\n      mstore\n      returndatasize\n      0x00\n      0x20\n      dup5\n      add\n      returndatacopy\n      jump(tag_22)\n    tag_23:\n      0x60\n      swap2\n      pop\n    tag_22:\n      pop\n        /* \"contracts/FrontRuning_Vulnerable.sol\":389:440  (bool sent, ) = msg.sender.call{value: 2 ether}(\"\") */\n      pop\n      swap1\n      pop\n        /* \"contracts/FrontRuning_Vulnerable.sol\":459:463  sent */\n      dup1\n        /* \"contracts/FrontRuning_Vulnerable.sol\":450:489  require (sent, \"Failed to send ethers\") */\n      tag_24\n      jumpi\n      mload(0x40)\n      0x08c379a000000000000000000000000000000000000000000000000000000000\n      dup2\n      mstore\n      0x04\n      add\n      tag_25\n      swap1\n      tag_26\n      jump\t// in\n    tag_25:\n      mload(0x40)\n      dup1\n      swap2\n      sub\n      swap1\n      revert\n    tag_24:\n        /* \"contracts/FrontRuning_Vulnerable.sol\":287:496  {... */\n      pop\n        /* \"contracts/FrontRuning_Vulnerable.sol\":238:496  function solve (string memory solution) external {... */\n      pop\n      jump\t// out\n        /* \"contracts/FrontRuning_Vulnerable.sol\":98:201  bytes32 public constant secretHash = 0x7ce2480ae379810bd95934eb0abae6daf3a1d1c49a259a0e4d608de64a3700cd */\n    tag_10:\n        /* \"contracts/FrontRuning_Vulnerable.sol\":135:201  0x7ce2480ae379810bd95934eb0abae6daf3a1d1c49a259a0e4d608de64a3700cd */\n      0x7ce2480ae379810bd95934eb0abae6daf3a1d1c49a259a0e4d608de64a3700cd\n        /* \"contracts/FrontRuning_Vulnerable.sol\":98:201  bytes32 public constant secretHash = 0x7ce2480ae379810bd95934eb0abae6daf3a1d1c49a259a0e4d608de64a3700cd */\n      0x00\n      shl\n      dup2\n      jump\t// out\n        /* \"#utility.yul\":7:82   */\n    tag_27:\n        /* \"#utility.yul\":40:46   */\n      0x00\n        /* \"#utility.yul\":73:75   */\n      0x40\n        /* \"#utility.yul\":67:76   */\n      mload\n        /* \"#utility.yul\":57:76   */\n      swap1\n      pop\n        /* \"#utility.yul\":7:82   */\n      swap1\n      jump\t// out\n        /* \"#utility.yul\":88:205   */\n    tag_28:\n        /* \"#utility.yul\":197:198   */\n      0x00\n        /* \"#utility.yul\":194:195   */\n      dup1\n        /* \"#utility.yul\":187:199   */\n      revert\n        /* \"#utility.yul\":211:328   */\n    tag_29:\n        /* \"#utility.yul\":320:321   */\n      0x00\n        /* \"#utility.yul\":317:318   */\n      dup1\n        /* \"#utility.yul\":310:322   */\n      revert\n        /* \"#utility.yul\":334:451   */\n    tag_30:\n        /* \"#utility.yul\":443:444   */\n      0x00\n        /* \"#utility.yul\":440:441   */\n      dup1\n        /* \"#utility.yul\":433:445   */\n      revert\n        /* \"#utility.yul\":457:574   */\n    tag_31:\n        /* \"#utility.yul\":566:567   */\n      0x00\n        /* \"#utility.yul\":563:564   */\n      dup1\n        /* \"#utility.yul\":556:568   */\n      revert\n        /* \"#utility.yul\":580:682   */\n    tag_32:\n        /* \"#utility.yul\":621:627   */\n      0x00\n        /* \"#utility.yul\":672:674   */\n      0x1f\n        /* \"#utility.yul\":668:675   */\n      not\n        /* \"#utility.yul\":663:665   */\n      0x1f\n        /* \"#utility.yul\":656:661   */\n      dup4\n        /* \"#utility.yul\":652:666   */\n      add\n        /* \"#utility.yul\":648:676   */\n      and\n        /* \"#utility.yul\":638:676   */\n      swap1\n      pop\n        /* \"#utility.yul\":580:682   */\n      swap2\n      swap1\n      pop\n      jump\t// out\n        /* \"#utility.yul\":688:868   */\n    tag_33:\n        /* \"#utility.yul\":736:813   */\n      0x4e487b7100000000000000000000000000000000000000000000000000000000\n        /* \"#utility.yul\":733:734   */\n      0x00\n        /* \"#utility.yul\":726:814   */\n      mstore\n        /* \"#utility.yul\":833:837   */\n      0x41\n        /* \"#utility.yul\":830:831   */\n      0x04\n        /* \"#utility.yul\":823:838   */\n      mstore\n        /* \"#utility.yul\":857:861   */\n      0x24\n        /* \"#utility.yul\":854:855   */\n      0x00\n        /* \"#utility.yul\":847:862   */\n      revert\n        /* \"#utility.yul\":874:1155   */\n    tag_34:\n        /* \"#utility.yul\":957:984   */\n      tag_63\n        /* \"#utility.yul\":979:983   */\n      dup3\n        /* \"#utility.yul\":957:984   */\n      tag_32\n      jump\t// in\n    tag_63:\n        /* \"#utility.yul\":949:955   */\n      dup2\n        /* \"#utility.yul\":945:985   */\n      add\n        /* \"#utility.yul\":1087:1093   */\n      dup2\n        /* \"#utility.yul\":1075:1085   */\n      dup2\n        /* \"#utility.yul\":1072:1094   */\n      lt\n        /* \"#utility.yul\":1051:1069   */\n      0xffffffffffffffff\n        /* \"#utility.yul\":1039:1049   */\n      dup3\n        /* \"#utility.yul\":1036:1070   */\n      gt\n        /* \"#utility.yul\":1033:1095   */\n      or\n        /* \"#utility.yul\":1030:1118   */\n      iszero\n      tag_64\n      jumpi\n        /* \"#utility.yul\":1098:1116   */\n      tag_65\n      tag_33\n      jump\t// in\n    tag_65:\n        /* \"#utility.yul\":1030:1118   */\n    tag_64:\n        /* \"#utility.yul\":1138:1148   */\n      dup1\n        /* \"#utility.yul\":1134:1136   */\n      0x40\n        /* \"#utility.yul\":1127:1149   */\n      mstore\n        /* \"#utility.yul\":917:1155   */\n      pop\n        /* \"#utility.yul\":874:1155   */\n      pop\n      pop\n      jump\t// out\n        /* \"#utility.yul\":1161:1290   */\n    tag_35:\n        /* \"#utility.yul\":1195:1201   */\n      0x00\n        /* \"#utility.yul\":1222:1242   */\n      tag_67\n      tag_27\n      jump\t// in\n    tag_67:\n        /* \"#utility.yul\":1212:1242   */\n      swap1\n      pop\n        /* \"#utility.yul\":1251:1284   */\n      tag_68\n        /* \"#utility.yul\":1279:1283   */\n      dup3\n        /* \"#utility.yul\":1271:1277   */\n      dup3\n        /* \"#utility.yul\":1251:1284   */\n      tag_34\n      jump\t// in\n    tag_68:\n        /* \"#utility.yul\":1161:1290   */\n      swap2\n      swap1\n      pop\n      jump\t// out\n        /* \"#utility.yul\":1296:1604   */\n    tag_36:\n        /* \"#utility.yul\":1358:1362   */\n      0x00\n        /* \"#utility.yul\":1448:1466   */\n      0xffffffffffffffff\n        /* \"#utility.yul\":1440:1446   */\n      dup3\n        /* \"#utility.yul\":1437:1467   */\n      gt\n        /* \"#utility.yul\":1434:1490   */\n      iszero\n      tag_70\n      jumpi\n        /* \"#utility.yul\":1470:1488   */\n      tag_71\n      tag_33\n      jump\t// in\n    tag_71:\n        /* \"#utility.yul\":1434:1490   */\n    tag_70:\n        /* \"#utility.yul\":1508:1537   */\n      tag_72\n        /* \"#utility.yul\":1530:1536   */\n      dup3\n        /* \"#utility.yul\":1508:1537   */\n      tag_32\n      jump\t// in\n    tag_72:\n        /* \"#utility.yul\":1500:1537   */\n      swap1\n      pop\n        /* \"#utility.yul\":1592:1596   */\n      0x20\n        /* \"#utility.yul\":1586:1590   */\n      dup2\n        /* \"#utility.yul\":1582:1597   */\n      add\n        /* \"#utility.yul\":1574:1597   */\n      swap1\n      pop\n        /* \"#utility.yul\":1296:1604   */\n      swap2\n      swap1\n      pop\n      jump\t// out\n        /* \"#utility.yul\":1610:1756   */\n    tag_37:\n        /* \"#utility.yul\":1707:1713   */\n      dup3\n        /* \"#utility.yul\":1702:1705   */\n      dup2\n        /* \"#utility.yul\":1697:1700   */\n      dup4\n        /* \"#utility.yul\":1684:1714   */\n      calldatacopy\n        /* \"#utility.yul\":1748:1749   */\n      0x00\n        /* \"#utility.yul\":1739:1745   */\n      dup4\n        /* \"#utility.yul\":1734:1737   */\n      dup4\n        /* \"#utility.yul\":1730:1746   */\n      add\n        /* \"#utility.yul\":1723:1750   */\n      mstore\n        /* \"#utility.yul\":1610:1756   */\n      pop\n      pop\n      pop\n      jump\t// out\n        /* \"#utility.yul\":1762:2187   */\n    tag_38:\n        /* \"#utility.yul\":1840:1845   */\n      0x00\n        /* \"#utility.yul\":1865:1931   */\n      tag_75\n        /* \"#utility.yul\":1881:1930   */\n      tag_76\n        /* \"#utility.yul\":1923:1929   */\n      dup5\n        /* \"#utility.yul\":1881:1930   */\n      tag_36\n      jump\t// in\n    tag_76:\n        /* \"#utility.yul\":1865:1931   */\n      tag_35\n      jump\t// in\n    tag_75:\n        /* \"#utility.yul\":1856:1931   */\n      swap1\n      pop\n        /* \"#utility.yul\":1954:1960   */\n      dup3\n        /* \"#utility.yul\":1947:1952   */\n      dup2\n        /* \"#utility.yul\":1940:1961   */\n      mstore\n        /* \"#utility.yul\":1992:1996   */\n      0x20\n        /* \"#utility.yul\":1985:1990   */\n      dup2\n        /* \"#utility.yul\":1981:1997   */\n      add\n        /* \"#utility.yul\":2030:2033   */\n      dup5\n        /* \"#utility.yul\":2021:2027   */\n      dup5\n        /* \"#utility.yul\":2016:2019   */\n      dup5\n        /* \"#utility.yul\":2012:2028   */\n      add\n        /* \"#utility.yul\":2009:2034   */\n      gt\n        /* \"#utility.yul\":2006:2118   */\n      iszero\n      tag_77\n      jumpi\n        /* \"#utility.yul\":2037:2116   */\n      tag_78\n      tag_31\n      jump\t// in\n    tag_78:\n        /* \"#utility.yul\":2006:2118   */\n    tag_77:\n        /* \"#utility.yul\":2127:2181   */\n      tag_79\n        /* \"#utility.yul\":2174:2180   */\n      dup5\n        /* \"#utility.yul\":2169:2172   */\n      dup3\n        /* \"#utility.yul\":2164:2167   */\n      dup6\n        /* \"#utility.yul\":2127:2181   */\n      tag_37\n      jump\t// in\n    tag_79:\n        /* \"#utility.yul\":1846:2187   */\n      pop\n        /* \"#utility.yul\":1762:2187   */\n      swap4\n      swap3\n      pop\n      pop\n      pop\n      jump\t// out\n        /* \"#utility.yul\":2207:2547   */\n    tag_39:\n        /* \"#utility.yul\":2263:2268   */\n      0x00\n        /* \"#utility.yul\":2312:2315   */\n      dup3\n        /* \"#utility.yul\":2305:2309   */\n      0x1f\n        /* \"#utility.yul\":2297:2303   */\n      dup4\n        /* \"#utility.yul\":2293:2310   */\n      add\n        /* \"#utility.yul\":2289:2316   */\n      slt\n        /* \"#utility.yul\":2279:2401   */\n      tag_81\n      jumpi\n        /* \"#utility.yul\":2320:2399   */\n      tag_82\n      tag_30\n      jump\t// in\n    tag_82:\n        /* \"#utility.yul\":2279:2401   */\n    tag_81:\n        /* \"#utility.yul\":2437:2443   */\n      dup2\n        /* \"#utility.yul\":2424:2444   */\n      calldataload\n        /* \"#utility.yul\":2462:2541   */\n      tag_83\n        /* \"#utility.yul\":2537:2540   */\n      dup5\n        /* \"#utility.yul\":2529:2535   */\n      dup3\n        /* \"#utility.yul\":2522:2526   */\n      0x20\n        /* \"#utility.yul\":2514:2520   */\n      dup7\n        /* \"#utility.yul\":2510:2527   */\n      add\n        /* \"#utility.yul\":2462:2541   */\n      tag_38\n      jump\t// in\n    tag_83:\n        /* \"#utility.yul\":2453:2541   */\n      swap2\n      pop\n        /* \"#utility.yul\":2269:2547   */\n      pop\n        /* \"#utility.yul\":2207:2547   */\n      swap3\n      swap2\n      pop\n      pop\n      jump\t// out\n        /* \"#utility.yul\":2553:3062   */\n    tag_7:\n        /* \"#utility.yul\":2622:2628   */\n      0x00\n        /* \"#utility.yul\":2671:2673   */\n      0x20\n        /* \"#utility.yul\":2659:2668   */\n      dup3\n        /* \"#utility.yul\":2650:2657   */\n      dup5\n        /* \"#utility.yul\":2646:2669   */\n      sub\n        /* \"#utility.yul\":2642:2674   */\n      slt\n        /* \"#utility.yul\":2639:2758   */\n      iszero\n      tag_85\n      jumpi\n        /* \"#utility.yul\":2677:2756   */\n      tag_86\n      tag_28\n      jump\t// in\n    tag_86:\n        /* \"#utility.yul\":2639:2758   */\n    tag_85:\n        /* \"#utility.yul\":2825:2826   */\n      0x00\n        /* \"#utility.yul\":2814:2823   */\n      dup3\n        /* \"#utility.yul\":2810:2827   */\n      add\n        /* \"#utility.yul\":2797:2828   */\n      calldataload\n        /* \"#utility.yul\":2855:2873   */\n      0xffffffffffffffff\n        /* \"#utility.yul\":2847:2853   */\n      dup2\n        /* \"#utility.yul\":2844:2874   */\n      gt\n        /* \"#utility.yul\":2841:2958   */\n      iszero\n      tag_87\n      jumpi\n        /* \"#utility.yul\":2877:2956   */\n      tag_88\n      tag_29\n      jump\t// in\n    tag_88:\n        /* \"#utility.yul\":2841:2958   */\n    tag_87:\n        /* \"#utility.yul\":2982:3045   */\n      tag_89\n        /* \"#utility.yul\":3037:3044   */\n      dup5\n        /* \"#utility.yul\":3028:3034   */\n      dup3\n        /* \"#utility.yul\":3017:3026   */\n      dup6\n        /* \"#utility.yul\":3013:3035   */\n      add\n        /* \"#utility.yul\":2982:3045   */\n      tag_39\n      jump\t// in\n    tag_89:\n        /* \"#utility.yul\":2972:3045   */\n      swap2\n      pop\n        /* \"#utility.yul\":2768:3055   */\n      pop\n        /* \"#utility.yul\":2553:3062   */\n      swap3\n      swap2\n      pop\n      pop\n      jump\t// out\n        /* \"#utility.yul\":3068:3145   */\n    tag_40:\n        /* \"#utility.yul\":3105:3112   */\n      0x00\n        /* \"#utility.yul\":3134:3139   */\n      dup2\n        /* \"#utility.yul\":3123:3139   */\n      swap1\n      pop\n        /* \"#utility.yul\":3068:3145   */\n      swap2\n      swap1\n      pop\n      jump\t// out\n        /* \"#utility.yul\":3151:3269   */\n    tag_41:\n        /* \"#utility.yul\":3238:3262   */\n      tag_92\n        /* \"#utility.yul\":3256:3261   */\n      dup2\n        /* \"#utility.yul\":3238:3262   */\n      tag_40\n      jump\t// in\n    tag_92:\n        /* \"#utility.yul\":3233:3236   */\n      dup3\n        /* \"#utility.yul\":3226:3263   */\n      mstore\n        /* \"#utility.yul\":3151:3269   */\n      pop\n      pop\n      jump\t// out\n        /* \"#utility.yul\":3275:3497   */\n    tag_12:\n        /* \"#utility.yul\":3368:3372   */\n      0x00\n        /* \"#utility.yul\":3406:3408   */\n      0x20\n        /* \"#utility.yul\":3395:3404   */\n      dup3\n        /* \"#utility.yul\":3391:3409   */\n      add\n        /* \"#utility.yul\":3383:3409   */\n      swap1\n      pop\n        /* \"#utility.yul\":3419:3490   */\n      tag_94\n        /* \"#utility.yul\":3487:3488   */\n      0x00\n        /* \"#utility.yul\":3476:3485   */\n      dup4\n        /* \"#utility.yul\":3472:3489   */\n      add\n        /* \"#utility.yul\":3463:3469   */\n      dup5\n        /* \"#utility.yul\":3419:3490   */\n      tag_41\n      jump\t// in\n    tag_94:\n        /* \"#utility.yul\":3275:3497   */\n      swap3\n      swap2\n      pop\n      pop\n      jump\t// out\n        /* \"#utility.yul\":3503:3602   */\n    tag_42:\n        /* \"#utility.yul\":3555:3561   */\n      0x00\n        /* \"#utility.yul\":3589:3594   */\n      dup2\n        /* \"#utility.yul\":3583:3595   */\n      mload\n        /* \"#utility.yul\":3573:3595   */\n      swap1\n      pop\n        /* \"#utility.yul\":3503:3602   */\n      swap2\n      swap1\n      pop\n      jump\t// out\n        /* \"#utility.yul\":3608:3756   */\n    tag_43:\n        /* \"#utility.yul\":3710:3721   */\n      0x00\n        /* \"#utility.yul\":3747:3750   */\n      dup2\n        /* \"#utility.yul\":3732:3750   */\n      swap1\n      pop\n        /* \"#utility.yul\":3608:3756   */\n      swap3\n      swap2\n      pop\n      pop\n      jump\t// out\n        /* \"#utility.yul\":3762:4008   */\n    tag_44:\n        /* \"#utility.yul\":3843:3844   */\n      0x00\n        /* \"#utility.yul\":3853:3966   */\n    tag_98:\n        /* \"#utility.yul\":3867:3873   */\n      dup4\n        /* \"#utility.yul\":3864:3865   */\n      dup2\n        /* \"#utility.yul\":3861:3874   */\n      lt\n        /* \"#utility.yul\":3853:3966   */\n      iszero\n      tag_100\n      jumpi\n        /* \"#utility.yul\":3952:3953   */\n      dup1\n        /* \"#utility.yul\":3947:3950   */\n      dup3\n        /* \"#utility.yul\":3943:3954   */\n      add\n        /* \"#utility.yul\":3937:3955   */\n      mload\n        /* \"#utility.yul\":3933:3934   */\n      dup2\n        /* \"#utility.yul\":3928:3931   */\n      dup5\n        /* \"#utility.yul\":3924:3935   */\n      add\n        /* \"#utility.yul\":3917:3956   */\n      mstore\n        /* \"#utility.yul\":3889:3891   */\n      0x20\n        /* \"#utility.yul\":3886:3887   */\n      dup2\n        /* \"#utility.yul\":3882:3892   */\n      add\n        /* \"#utility.yul\":3877:3892   */\n      swap1\n      pop\n        /* \"#utility.yul\":3853:3966   */\n      jump(tag_98)\n    tag_100:\n        /* \"#utility.yul\":4000:4001   */\n      0x00\n        /* \"#utility.yul\":3991:3997   */\n      dup5\n        /* \"#utility.yul\":3986:3989   */\n      dup5\n        /* \"#utility.yul\":3982:3998   */\n      add\n        /* \"#utility.yul\":3975:4002   */\n      mstore\n        /* \"#utility.yul\":3824:4008   */\n      pop\n        /* \"#utility.yul\":3762:4008   */\n      pop\n      pop\n      pop\n      jump\t// out\n        /* \"#utility.yul\":4014:4404   */\n    tag_45:\n        /* \"#utility.yul\":4120:4123   */\n      0x00\n        /* \"#utility.yul\":4148:4187   */\n      tag_102\n        /* \"#utility.yul\":4181:4186   */\n      dup3\n        /* \"#utility.yul\":4148:4187   */\n      tag_42\n      jump\t// in\n    tag_102:\n        /* \"#utility.yul\":4203:4292   */\n      tag_103\n        /* \"#utility.yul\":4285:4291   */\n      dup2\n        /* \"#utility.yul\":4280:4283   */\n      dup6\n        /* \"#utility.yul\":4203:4292   */\n      tag_43\n      jump\t// in\n    tag_103:\n        /* \"#utility.yul\":4196:4292   */\n      swap4\n      pop\n        /* \"#utility.yul\":4301:4366   */\n      tag_104\n        /* \"#utility.yul\":4359:4365   */\n      dup2\n        /* \"#utility.yul\":4354:4357   */\n      dup6\n        /* \"#utility.yul\":4347:4351   */\n      0x20\n        /* \"#utility.yul\":4340:4345   */\n      dup7\n        /* \"#utility.yul\":4336:4352   */\n      add\n        /* \"#utility.yul\":4301:4366   */\n      tag_44\n      jump\t// in\n    tag_104:\n        /* \"#utility.yul\":4391:4397   */\n      dup1\n        /* \"#utility.yul\":4386:4389   */\n      dup5\n        /* \"#utility.yul\":4382:4398   */\n      add\n        /* \"#utility.yul\":4375:4398   */\n      swap2\n      pop\n        /* \"#utility.yul\":4124:4404   */\n      pop\n        /* \"#utility.yul\":4014:4404   */\n      swap3\n      swap2\n      pop\n      pop\n      jump\t// out\n        /* \"#utility.yul\":4410:4685   */\n    tag_15:\n        /* \"#utility.yul\":4542:4545   */\n      0x00\n        /* \"#utility.yul\":4564:4659   */\n      tag_106\n        /* \"#utility.yul\":4655:4658   */\n      dup3\n        /* \"#utility.yul\":4646:4652   */\n      dup5\n        /* \"#utility.yul\":4564:4659   */\n      tag_45\n      jump\t// in\n    tag_106:\n        /* \"#utility.yul\":4557:4659   */\n      swap2\n      pop\n        /* \"#utility.yul\":4676:4679   */\n      dup2\n        /* \"#utility.yul\":4669:4679   */\n      swap1\n      pop\n        /* \"#utility.yul\":4410:4685   */\n      swap3\n      swap2\n      pop\n      pop\n      jump\t// out\n        /* \"#utility.yul\":4691:4860   */\n    tag_46:\n        /* \"#utility.yul\":4775:4786   */\n      0x00\n        /* \"#utility.yul\":4809:4815   */\n      dup3\n        /* \"#utility.yul\":4804:4807   */\n      dup3\n        /* \"#utility.yul\":4797:4816   */\n      mstore\n        /* \"#utility.yul\":4849:4853   */\n      0x20\n        /* \"#utility.yul\":4844:4847   */\n      dup3\n        /* \"#utility.yul\":4840:4854   */\n      add\n        /* \"#utility.yul\":4825:4854   */\n      swap1\n      pop\n        /* \"#utility.yul\":4691:4860   */\n      swap3\n      swap2\n      pop\n      pop\n      jump\t// out\n        /* \"#utility.yul\":4866:5032   */\n    tag_47:\n        /* \"#utility.yul\":5006:5024   */\n      0x496e636f727265637420616e7377657200000000000000000000000000000000\n        /* \"#utility.yul\":5002:5003   */\n      0x00\n        /* \"#utility.yul\":4994:5000   */\n      dup3\n        /* \"#utility.yul\":4990:5004   */\n      add\n        /* \"#utility.yul\":4983:5025   */\n      mstore\n        /* \"#utility.yul\":4866:5032   */\n      pop\n      jump\t// out\n        /* \"#utility.yul\":5038:5404   */\n    tag_48:\n        /* \"#utility.yul\":5180:5183   */\n      0x00\n        /* \"#utility.yul\":5201:5268   */\n      tag_110\n        /* \"#utility.yul\":5265:5267   */\n      0x10\n        /* \"#utility.yul\":5260:5263   */\n      dup4\n        /* \"#utility.yul\":5201:5268   */\n      tag_46\n      jump\t// in\n    tag_110:\n        /* \"#utility.yul\":5194:5268   */\n      swap2\n      pop\n        /* \"#utility.yul\":5277:5370   */\n      tag_111\n        /* \"#utility.yul\":5366:5369   */\n      dup3\n        /* \"#utility.yul\":5277:5370   */\n      tag_47\n      jump\t// in\n    tag_111:\n        /* \"#utility.yul\":5395:5397   */\n      0x20\n        /* \"#utility.yul\":5390:5393   */\n      dup3\n        /* \"#utility.yul\":5386:5398   */\n      add\n        /* \"#utility.yul\":5379:5398   */\n      swap1\n      pop\n        /* \"#utility.yul\":5038:5404   */\n      swap2\n      swap1\n      pop\n      jump\t// out\n        /* \"#utility.yul\":5410:5829   */\n    tag_18:\n        /* \"#utility.yul\":5576:5580   */\n      0x00\n        /* \"#utility.yul\":5614:5616   */\n      0x20\n        /* \"#utility.yul\":5603:5612   */\n      dup3\n        /* \"#utility.yul\":5599:5617   */\n      add\n        /* \"#utility.yul\":5591:5617   */\n      swap1\n      pop\n        /* \"#utility.yul\":5663:5672   */\n      dup2\n        /* \"#utility.yul\":5657:5661   */\n      dup2\n        /* \"#utility.yul\":5653:5673   */\n      sub\n        /* \"#utility.yul\":5649:5650   */\n      0x00\n        /* \"#utility.yul\":5638:5647   */\n      dup4\n        /* \"#utility.yul\":5634:5651   */\n      add\n        /* \"#utility.yul\":5627:5674   */\n      mstore\n        /* \"#utility.yul\":5691:5822   */\n      tag_113\n        /* \"#utility.yul\":5817:5821   */\n      dup2\n        /* \"#utility.yul\":5691:5822   */\n      tag_48\n      jump\t// in\n    tag_113:\n        /* \"#utility.yul\":5683:5822   */\n      swap1\n      pop\n        /* \"#utility.yul\":5410:5829   */\n      swap2\n      swap1\n      pop\n      jump\t// out\n        /* \"#utility.yul\":5835:5982   */\n    tag_49:\n        /* \"#utility.yul\":5936:5947   */\n      0x00\n        /* \"#utility.yul\":5973:5976   */\n      dup2\n        /* \"#utility.yul\":5958:5976   */\n      swap1\n      pop\n        /* \"#utility.yul\":5835:5982   */\n      swap3\n      swap2\n      pop\n      pop\n      jump\t// out\n        /* \"#utility.yul\":5988:6102   */\n    tag_50:\n      pop\n      jump\t// out\n        /* \"#utility.yul\":6108:6506   */\n    tag_51:\n        /* \"#utility.yul\":6267:6270   */\n      0x00\n        /* \"#utility.yul\":6288:6371   */\n      tag_117\n        /* \"#utility.yul\":6369:6370   */\n      0x00\n        /* \"#utility.yul\":6364:6367   */\n      dup4\n        /* \"#utility.yul\":6288:6371   */\n      tag_49\n      jump\t// in\n    tag_117:\n        /* \"#utility.yul\":6281:6371   */\n      swap2\n      pop\n        /* \"#utility.yul\":6380:6473   */\n      tag_118\n        /* \"#utility.yul\":6469:6472   */\n      dup3\n        /* \"#utility.yul\":6380:6473   */\n      tag_50\n      jump\t// in\n    tag_118:\n        /* \"#utility.yul\":6498:6499   */\n      0x00\n        /* \"#utility.yul\":6493:6496   */\n      dup3\n        /* \"#utility.yul\":6489:6500   */\n      add\n        /* \"#utility.yul\":6482:6500   */\n      swap1\n      pop\n        /* \"#utility.yul\":6108:6506   */\n      swap2\n      swap1\n      pop\n      jump\t// out\n        /* \"#utility.yul\":6512:6891   */\n    tag_20:\n        /* \"#utility.yul\":6696:6699   */\n      0x00\n        /* \"#utility.yul\":6718:6865   */\n      tag_120\n        /* \"#utility.yul\":6861:6864   */\n      dup3\n        /* \"#utility.yul\":6718:6865   */\n      tag_51\n      jump\t// in\n    tag_120:\n        /* \"#utility.yul\":6711:6865   */\n      swap2\n      pop\n        /* \"#utility.yul\":6882:6885   */\n      dup2\n        /* \"#utility.yul\":6875:6885   */\n      swap1\n      pop\n        /* \"#utility.yul\":6512:6891   */\n      swap2\n      swap1\n      pop\n      jump\t// out\n        /* \"#utility.yul\":6897:7068   */\n    tag_52:\n        /* \"#utility.yul\":7037:7060   */\n      0x4661696c656420746f2073656e64206574686572730000000000000000000000\n        /* \"#utility.yul\":7033:7034   */\n      0x00\n        /* \"#utility.yul\":7025:7031   */\n      dup3\n        /* \"#utility.yul\":7021:7035   */\n      add\n        /* \"#utility.yul\":7014:7061   */\n      mstore\n        /* \"#utility.yul\":6897:7068   */\n      pop\n      jump\t// out\n        /* \"#utility.yul\":7074:7440   */\n    tag_53:\n        /* \"#utility.yul\":7216:7219   */\n      0x00\n        /* \"#utility.yul\":7237:7304   */\n      tag_123\n        /* \"#utility.yul\":7301:7303   */\n      0x15\n        /* \"#utility.yul\":7296:7299   */\n      dup4\n        /* \"#utility.yul\":7237:7304   */\n      tag_46\n      jump\t// in\n    tag_123:\n        /* \"#utility.yul\":7230:7304   */\n      swap2\n      pop\n        /* \"#utility.yul\":7313:7406   */\n      tag_124\n        /* \"#utility.yul\":7402:7405   */\n      dup3\n        /* \"#utility.yul\":7313:7406   */\n      tag_52\n      jump\t// in\n    tag_124:\n        /* \"#utility.yul\":7431:7433   */\n      0x20\n        /* \"#utility.yul\":7426:7429   */\n      dup3\n        /* \"#utility.yul\":7422:7434   */\n      add\n        /* \"#utility.yul\":7415:7434   */\n      swap1\n      pop\n        /* \"#utility.yul\":7074:7440   */\n      swap2\n      swap1\n      pop\n      jump\t// out\n        /* \"#utility.yul\":7446:7865   */\n    tag_26:\n        /* \"#utility.yul\":7612:7616   */\n      0x00\n        /* \"#utility.yul\":7650:7652   */\n      0x20\n        /* \"#utility.yul\":7639:7648   */\n      dup3\n        /* \"#utility.yul\":7635:7653   */\n      add\n        /* \"#utility.yul\":7627:7653   */\n      swap1\n      pop\n        /* \"#utility.yul\":7699:7708   */\n      dup2\n        /* \"#utility.yul\":7693:7697   */\n      dup2\n        /* \"#utility.yul\":7689:7709   */\n      sub\n        /* \"#utility.yul\":7685:7686   */\n      0x00\n        /* \"#utility.yul\":7674:7683   */\n      dup4\n        /* \"#utility.yul\":7670:7687   */\n      add\n        /* \"#utility.yul\":7663:7710   */\n      mstore\n        /* \"#utility.yul\":7727:7858   */\n      tag_126\n        /* \"#utility.yul\":7853:7857   */\n      dup2\n        /* \"#utility.yul\":7727:7858   */\n      tag_53\n      jump\t// in\n    tag_126:\n        /* \"#utility.yul\":7719:7858   */\n      swap1\n      pop\n        /* \"#utility.yul\":7446:7865   */\n      swap2\n      swap1\n      pop\n      jump\t// out\n\n    auxdata: 0xa2646970667358221220c89c7974d94cc7c42d30c7d74d33b945cd0f6233b00bb07b5331d1e733bac78a64736f6c63430008120033\n}\n",
				"bytecode": {
					"linkReferences": {},
					"object": "60806040526105a3806100136000396000f3fe608060405234801561001057600080fd5b50600436106100365760003560e01c806376fe1e921461003b578063d29e680314610057575b600080fd5b61005560048036038101906100509190610339565b610075565b005b61005f6101b8565b60405161006c919061039b565b60405180910390f35b806040516020016100869190610427565b604051602081830303815290604052805190602001207f7ce2480ae379810bd95934eb0abae6daf3a1d1c49a259a0e4d608de64a3700cd60001b14610100576040517f08c379a00000000000000000000000000000000000000000000000000000000081526004016100f79061049b565b60405180910390fd5b60003373ffffffffffffffffffffffffffffffffffffffff16671bc16d674ec8000060405161012e906104ec565b60006040518083038185875af1925050503d806000811461016b576040519150601f19603f3d011682016040523d82523d6000602084013e610170565b606091505b50509050806101b4576040517f08c379a00000000000000000000000000000000000000000000000000000000081526004016101ab9061054d565b60405180910390fd5b5050565b7f7ce2480ae379810bd95934eb0abae6daf3a1d1c49a259a0e4d608de64a3700cd60001b81565b6000604051905090565b600080fd5b600080fd5b600080fd5b600080fd5b6000601f19601f8301169050919050565b7f4e487b7100000000000000000000000000000000000000000000000000000000600052604160045260246000fd5b610246826101fd565b810181811067ffffffffffffffff821117156102655761026461020e565b5b80604052505050565b60006102786101df565b9050610284828261023d565b919050565b600067ffffffffffffffff8211156102a4576102a361020e565b5b6102ad826101fd565b9050602081019050919050565b82818337600083830152505050565b60006102dc6102d784610289565b61026e565b9050828152602081018484840111156102f8576102f76101f8565b5b6103038482856102ba565b509392505050565b600082601f8301126103205761031f6101f3565b5b81356103308482602086016102c9565b91505092915050565b60006020828403121561034f5761034e6101e9565b5b600082013567ffffffffffffffff81111561036d5761036c6101ee565b5b6103798482850161030b565b91505092915050565b6000819050919050565b61039581610382565b82525050565b60006020820190506103b0600083018461038c565b92915050565b600081519050919050565b600081905092915050565b60005b838110156103ea5780820151818401526020810190506103cf565b60008484015250505050565b6000610401826103b6565b61040b81856103c1565b935061041b8185602086016103cc565b80840191505092915050565b600061043382846103f6565b915081905092915050565b600082825260208201905092915050565b7f496e636f727265637420616e7377657200000000000000000000000000000000600082015250565b600061048560108361043e565b91506104908261044f565b602082019050919050565b600060208201905081810360008301526104b481610478565b9050919050565b600081905092915050565b50565b60006104d66000836104bb565b91506104e1826104c6565b600082019050919050565b60006104f7826104c9565b9150819050919050565b7f4661696c656420746f2073656e64206574686572730000000000000000000000600082015250565b600061053760158361043e565b915061054282610501565b602082019050919050565b600060208201905081810360008301526105668161052a565b905091905056fea2646970667358221220c89c7974d94cc7c42d30c7d74d33b945cd0f6233b00bb07b5331d1e733bac78a64736f6c63430008120033",
					"opcodes": "PUSH1 0x80 PUSH1 0x40 MSTORE PUSH2 0x5A3 DUP1 PUSH2 0x13 PUSH1 0x0 CODECOPY PUSH1 0x0 RETURN INVALID PUSH1 0x80 PUSH1 0x40 MSTORE CALLVALUE DUP1 ISZERO PUSH2 0x10 JUMPI PUSH1 0x0 DUP1 REVERT JUMPDEST POP PUSH1 0x4 CALLDATASIZE LT PUSH2 0x36 JUMPI PUSH1 0x0 CALLDATALOAD PUSH1 0xE0 SHR DUP1 PUSH4 0x76FE1E92 EQ PUSH2 0x3B JUMPI DUP1 PUSH4 0xD29E6803 EQ PUSH2 0x57 JUMPI JUMPDEST PUSH1 0x0 DUP1 REVERT JUMPDEST PUSH2 0x55 PUSH1 0x4 DUP1 CALLDATASIZE SUB DUP2 ADD SWAP1 PUSH2 0x50 SWAP2 SWAP1 PUSH2 0x339 JUMP JUMPDEST PUSH2 0x75 JUMP JUMPDEST STOP JUMPDEST PUSH2 0x5F PUSH2 0x1B8 JUMP JUMPDEST PUSH1 0x40 MLOAD PUSH2 0x6C SWAP2 SWAP1 PUSH2 0x39B JUMP JUMPDEST PUSH1 0x40 MLOAD DUP1 SWAP2 SUB SWAP1 RETURN JUMPDEST DUP1 PUSH1 0x40 MLOAD PUSH1 0x20 ADD PUSH2 0x86 SWAP2 SWAP1 PUSH2 0x427 JUMP JUMPDEST PUSH1 0x40 MLOAD PUSH1 0x20 DUP2 DUP4 SUB SUB DUP2 MSTORE SWAP1 PUSH1 0x40 MSTORE DUP1 MLOAD SWAP1 PUSH1 0x20 ADD KECCAK256 PUSH32 0x7CE2480AE379810BD95934EB0ABAE6DAF3A1D1C49A259A0E4D608DE64A3700CD PUSH1 0x0 SHL EQ PUSH2 0x100 JUMPI PUSH1 0x40 MLOAD PUSH32 0x8C379A000000000000000000000000000000000000000000000000000000000 DUP2 MSTORE PUSH1 0x4 ADD PUSH2 0xF7 SWAP1 PUSH2 0x49B JUMP JUMPDEST PUSH1 0x40 MLOAD DUP1 SWAP2 SUB SWAP1 REVERT JUMPDEST PUSH1 0x0 CALLER PUSH20 0xFFFFFFFFFFFFFFFFFFFFFFFFFFFFFFFFFFFFFFFF AND PUSH8 0x1BC16D674EC80000 PUSH1 0x40 MLOAD PUSH2 0x12E SWAP1 PUSH2 0x4EC JUMP JUMPDEST PUSH1 0x0 PUSH1 0x40 MLOAD DUP1 DUP4 SUB DUP2 DUP6 DUP8 GAS CALL SWAP3 POP POP POP RETURNDATASIZE DUP1 PUSH1 0x0 DUP2 EQ PUSH2 0x16B JUMPI PUSH1 0x40 MLOAD SWAP2 POP PUSH1 0x1F NOT PUSH1 0x3F RETURNDATASIZE ADD AND DUP3 ADD PUSH1 0x40 MSTORE RETURNDATASIZE DUP3 MSTORE RETURNDATASIZE PUSH1 0x0 PUSH1 0x20 DUP5 ADD RETURNDATACOPY PUSH2 0x170 JUMP JUMPDEST PUSH1 0x60 SWAP2 POP JUMPDEST POP POP SWAP1 POP DUP1 PUSH2 0x1B4 JUMPI PUSH1 0x40 MLOAD PUSH32 0x8C379A000000000000000000000000000000000000000000000000000000000 DUP2 MSTORE PUSH1 0x4 ADD PUSH2 0x1AB SWAP1 PUSH2 0x54D JUMP JUMPDEST PUSH1 0x40 MLOAD DUP1 SWAP2 SUB SWAP1 REVERT JUMPDEST POP POP JUMP JUMPDEST PUSH32 0x7CE2480AE379810BD95934EB0ABAE6DAF3A1D1C49A259A0E4D608DE64A3700CD PUSH1 0x0 SHL DUP2 JUMP JUMPDEST PUSH1 0x0 PUSH1 0x40 MLOAD SWAP1 POP SWAP1 JUMP JUMPDEST PUSH1 0x0 DUP1 REVERT JUMPDEST PUSH1 0x0 DUP1 REVERT JUMPDEST PUSH1 0x0 DUP1 REVERT JUMPDEST PUSH1 0x0 DUP1 REVERT JUMPDEST PUSH1 0x0 PUSH1 0x1F NOT PUSH1 0x1F DUP4 ADD AND SWAP1 POP SWAP2 SWAP1 POP JUMP JUMPDEST PUSH32 0x4E487B7100000000000000000000000000000000000000000000000000000000 PUSH1 0x0 MSTORE PUSH1 0x41 PUSH1 0x4 MSTORE PUSH1 0x24 PUSH1 0x0 REVERT JUMPDEST PUSH2 0x246 DUP3 PUSH2 0x1FD JUMP JUMPDEST DUP2 ADD DUP2 DUP2 LT PUSH8 0xFFFFFFFFFFFFFFFF DUP3 GT OR ISZERO PUSH2 0x265 JUMPI PUSH2 0x264 PUSH2 0x20E JUMP JUMPDEST JUMPDEST DUP1 PUSH1 0x40 MSTORE POP POP POP JUMP JUMPDEST PUSH1 0x0 PUSH2 0x278 PUSH2 0x1DF JUMP JUMPDEST SWAP1 POP PUSH2 0x284 DUP3 DUP3 PUSH2 0x23D JUMP JUMPDEST SWAP2 SWAP1 POP JUMP JUMPDEST PUSH1 0x0 PUSH8 0xFFFFFFFFFFFFFFFF DUP3 GT ISZERO PUSH2 0x2A4 JUMPI PUSH2 0x2A3 PUSH2 0x20E JUMP JUMPDEST JUMPDEST PUSH2 0x2AD DUP3 PUSH2 0x1FD JUMP JUMPDEST SWAP1 POP PUSH1 0x20 DUP2 ADD SWAP1 POP SWAP2 SWAP1 POP JUMP JUMPDEST DUP3 DUP2 DUP4 CALLDATACOPY PUSH1 0x0 DUP4 DUP4 ADD MSTORE POP POP POP JUMP JUMPDEST PUSH1 0x0 PUSH2 0x2DC PUSH2 0x2D7 DUP5 PUSH2 0x289 JUMP JUMPDEST PUSH2 0x26E JUMP JUMPDEST SWAP1 POP DUP3 DUP2 MSTORE PUSH1 0x20 DUP2 ADD DUP5 DUP5 DUP5 ADD GT ISZERO PUSH2 0x2F8 JUMPI PUSH2 0x2F7 PUSH2 0x1F8 JUMP JUMPDEST JUMPDEST PUSH2 0x303 DUP5 DUP3 DUP6 PUSH2 0x2BA JUMP JUMPDEST POP SWAP4 SWAP3 POP POP POP JUMP JUMPDEST PUSH1 0x0 DUP3 PUSH1 0x1F DUP4 ADD SLT PUSH2 0x320 JUMPI PUSH2 0x31F PUSH2 0x1F3 JUMP JUMPDEST JUMPDEST DUP2 CALLDATALOAD PUSH2 0x330 DUP5 DUP3 PUSH1 0x20 DUP7 ADD PUSH2 0x2C9 JUMP JUMPDEST SWAP2 POP POP SWAP3 SWAP2 POP POP JUMP JUMPDEST PUSH1 0x0 PUSH1 0x20 DUP3 DUP5 SUB SLT ISZERO PUSH2 0x34F JUMPI PUSH2 0x34E PUSH2 0x1E9 JUMP JUMPDEST JUMPDEST PUSH1 0x0 DUP3 ADD CALLDATALOAD PUSH8 0xFFFFFFFFFFFFFFFF DUP2 GT ISZERO PUSH2 0x36D JUMPI PUSH2 0x36C PUSH2 0x1EE JUMP JUMPDEST JUMPDEST PUSH2 0x379 DUP5 DUP3 DUP6 ADD PUSH2 0x30B JUMP JUMPDEST SWAP2 POP POP SWAP3 SWAP2 POP POP JUMP JUMPDEST PUSH1 0x0 DUP2 SWAP1 POP SWAP2 SWAP1 POP JUMP JUMPDEST PUSH2 0x395 DUP2 PUSH2 0x382 JUMP JUMPDEST DUP3 MSTORE POP POP JUMP JUMPDEST PUSH1 0x0 PUSH1 0x20 DUP3 ADD SWAP1 POP PUSH2 0x3B0 PUSH1 0x0 DUP4 ADD DUP5 PUSH2 0x38C JUMP JUMPDEST SWAP3 SWAP2 POP POP JUMP JUMPDEST PUSH1 0x0 DUP2 MLOAD SWAP1 POP SWAP2 SWAP1 POP JUMP JUMPDEST PUSH1 0x0 DUP2 SWAP1 POP SWAP3 SWAP2 POP POP JUMP JUMPDEST PUSH1 0x0 JUMPDEST DUP4 DUP2 LT ISZERO PUSH2 0x3EA JUMPI DUP1 DUP3 ADD MLOAD DUP2 DUP5 ADD MSTORE PUSH1 0x20 DUP2 ADD SWAP1 POP PUSH2 0x3CF JUMP JUMPDEST PUSH1 0x0 DUP5 DUP5 ADD MSTORE POP POP POP POP JUMP JUMPDEST PUSH1 0x0 PUSH2 0x401 DUP3 PUSH2 0x3B6 JUMP JUMPDEST PUSH2 0x40B DUP2 DUP6 PUSH2 0x3C1 JUMP JUMPDEST SWAP4 POP PUSH2 0x41B DUP2 DUP6 PUSH1 0x20 DUP7 ADD PUSH2 0x3CC JUMP JUMPDEST DUP1 DUP5 ADD SWAP2 POP POP SWAP3 SWAP2 POP POP JUMP JUMPDEST PUSH1 0x0 PUSH2 0x433 DUP3 DUP5 PUSH2 0x3F6 JUMP JUMPDEST SWAP2 POP DUP2 SWAP1 POP SWAP3 SWAP2 POP POP JUMP JUMPDEST PUSH1 0x0 DUP3 DUP3 MSTORE PUSH1 0x20 DUP3 ADD SWAP1 POP SWAP3 SWAP2 POP POP JUMP JUMPDEST PUSH32 0x496E636F727265637420616E7377657200000000000000000000000000000000 PUSH1 0x0 DUP3 ADD MSTORE POP JUMP JUMPDEST PUSH1 0x0 PUSH2 0x485 PUSH1 0x10 DUP4 PUSH2 0x43E JUMP JUMPDEST SWAP2 POP PUSH2 0x490 DUP3 PUSH2 0x44F JUMP JUMPDEST PUSH1 0x20 DUP3 ADD SWAP1 POP SWAP2 SWAP1 POP JUMP JUMPDEST PUSH1 0x0 PUSH1 0x20 DUP3 ADD SWAP1 POP DUP2 DUP2 SUB PUSH1 0x0 DUP4 ADD MSTORE PUSH2 0x4B4 DUP2 PUSH2 0x478 JUMP JUMPDEST SWAP1 POP SWAP2 SWAP1 POP JUMP JUMPDEST PUSH1 0x0 DUP2 SWAP1 POP SWAP3 SWAP2 POP POP JUMP JUMPDEST POP JUMP JUMPDEST PUSH1 0x0 PUSH2 0x4D6 PUSH1 0x0 DUP4 PUSH2 0x4BB JUMP JUMPDEST SWAP2 POP PUSH2 0x4E1 DUP3 PUSH2 0x4C6 JUMP JUMPDEST PUSH1 0x0 DUP3 ADD SWAP1 POP SWAP2 SWAP1 POP JUMP JUMPDEST PUSH1 0x0 PUSH2 0x4F7 DUP3 PUSH2 0x4C9 JUMP JUMPDEST SWAP2 POP DUP2 SWAP1 POP SWAP2 SWAP1 POP JUMP JUMPDEST PUSH32 0x4661696C656420746F2073656E64206574686572730000000000000000000000 PUSH1 0x0 DUP3 ADD MSTORE POP JUMP JUMPDEST PUSH1 0x0 PUSH2 0x537 PUSH1 0x15 DUP4 PUSH2 0x43E JUMP JUMPDEST SWAP2 POP PUSH2 0x542 DUP3 PUSH2 0x501 JUMP JUMPDEST PUSH1 0x20 DUP3 ADD SWAP1 POP SWAP2 SWAP1 POP JUMP JUMPDEST PUSH1 0x0 PUSH1 0x20 DUP3 ADD SWAP1 POP DUP2 DUP2 SUB PUSH1 0x0 DUP4 ADD MSTORE PUSH2 0x566 DUP2 PUSH2 0x52A JUMP JUMPDEST SWAP1 POP SWAP2 SWAP1 POP JUMP INVALID LOG2 PUSH5 0x6970667358 0x22 SLT KECCAK256 0xC8 SWAP13 PUSH26 0x74D94CC7C42D30C7D74D33B945CD0F6233B00BB07B5331D1E733 0xBA 0xC7 DUP11 PUSH5 0x736F6C6343 STOP ADDMOD SLT STOP CALLER "
				},
				"gasEstimates": {
					"creation": {
						"codeDepositCost": "288600",
						"executionCost": "307",
						"totalCost": "288907"
					},
					"external": {
						"secretHash()": "335",
						"solve(string)": "infinite"
					}
				},
				"methodIdentifiers": {
					"secretHash()": "d29e6803",
					"solve(string)": "76fe1e92"
				}
			},
			"storageLayout": {
				"storage": [],
				"types": null
			},
			"userdoc": {
				"kind": "user",
				"methods": {},
				"version": 1
			}
		}
	}
}